{
  "_format": "hh-sol-artifact-1",
  "contractName": "BuyMeACoffee",
  "sourceName": "contracts/BuyMeACoffee.sol",
  "abi": [
    {
      "inputs": [
        {
          "internalType": "address",
          "name": "_priceFeed",
          "type": "address"
        }
      ],
      "stateMutability": "nonpayable",
      "type": "constructor"
    },
    {
      "anonymous": false,
      "inputs": [
        {
          "indexed": false,
          "internalType": "address",
          "name": "from",
          "type": "address"
        },
        {
          "indexed": false,
          "internalType": "uint256",
          "name": "timestamp",
          "type": "uint256"
        },
        {
          "indexed": false,
          "internalType": "string",
          "name": "name",
          "type": "string"
        },
        {
          "indexed": false,
          "internalType": "string",
          "name": "message",
          "type": "string"
        }
      ],
      "name": "NewMemo",
      "type": "event"
    },
    {
      "inputs": [
        {
          "internalType": "string",
          "name": "name",
          "type": "string"
        },
        {
          "internalType": "string",
          "name": "message",
          "type": "string"
        },
        {
          "internalType": "uint256",
          "name": "idrAmount",
          "type": "uint256"
        }
      ],
      "name": "buycoffeeinidr",
      "outputs": [],
      "stateMutability": "payable",
      "type": "function"
    },
    {
      "inputs": [],
      "name": "getMemos",
      "outputs": [
        {
          "components": [
            {
              "internalType": "address",
              "name": "from",
              "type": "address"
            },
            {
              "internalType": "uint256",
              "name": "timestamp",
              "type": "uint256"
            },
            {
              "internalType": "string",
              "name": "name",
              "type": "string"
            },
            {
              "internalType": "string",
              "name": "message",
              "type": "string"
            }
          ],
          "internalType": "struct BuyMeACoffee.Memo[]",
          "name": "",
          "type": "tuple[]"
        }
      ],
      "stateMutability": "view",
      "type": "function"
    },
    {
      "inputs": [],
      "name": "getlatestethtousdprice",
      "outputs": [
        {
          "internalType": "uint256",
          "name": "",
          "type": "uint256"
        }
      ],
      "stateMutability": "view",
      "type": "function"
    },
    {
      "inputs": [
        {
          "internalType": "uint256",
          "name": "idrAmount",
          "type": "uint256"
        }
      ],
      "name": "idrtoeth",
      "outputs": [
        {
          "internalType": "uint256",
          "name": "",
          "type": "uint256"
        }
      ],
      "stateMutability": "view",
      "type": "function"
    },
    {
      "inputs": [
        {
          "internalType": "uint256",
          "name": "_rate",
          "type": "uint256"
        }
      ],
      "name": "updateusdtoidrprice",
      "outputs": [],
      "stateMutability": "nonpayable",
      "type": "function"
    },
    {
      "inputs": [],
      "name": "usdtoidrPrice",
      "outputs": [
        {
          "internalType": "uint256",
          "name": "",
          "type": "uint256"
        }
      ],
      "stateMutability": "view",
      "type": "function"
    },
    {
      "inputs": [],
      "name": "withdrawTips",
      "outputs": [],
      "stateMutability": "nonpayable",
      "type": "function"
    }
  ],
  "bytecode": "0x608060405234801561001057600080fd5b5060405161190038038061190083398181016040528101906100329190610125565b33600360006101000a81548173ffffffffffffffffffffffffffffffffffffffff021916908373ffffffffffffffffffffffffffffffffffffffff160217905550806000806101000a81548173ffffffffffffffffffffffffffffffffffffffff021916908373ffffffffffffffffffffffffffffffffffffffff160217905550613a9860018190555050610152565b600080fd5b600073ffffffffffffffffffffffffffffffffffffffff82169050919050565b60006100f2826100c7565b9050919050565b610102816100e7565b811461010d57600080fd5b50565b60008151905061011f816100f9565b92915050565b60006020828403121561013b5761013a6100c2565b5b600061014984828501610110565b91505092915050565b61179f806101616000396000f3fe6080604052600436106100705760003560e01c80634248e93f1161004e5780634248e93f146100e557806355cd03b414610110578063865c51721461013b578063f7d13d481461016657610070565b80630ca13b7b146100755780633aaa74b2146100b25780633d6f3f7f146100c9575b600080fd5b34801561008157600080fd5b5061009c60048036038101906100979190610995565b61018f565b6040516100a991906109d1565b60405180910390f35b3480156100be57600080fd5b506100c7610230565b005b6100e360048036038101906100de9190610b32565b6103d4565b005b3480156100f157600080fd5b506100fa6105a3565b60405161010791906109d1565b60405180910390f35b34801561011c57600080fd5b506101256105a9565b60405161013291906109d1565b60405180910390f35b34801561014757600080fd5b5061015061068b565b60405161015d9190610db8565b60405180910390f35b34801561017257600080fd5b5061018d60048036038101906101889190610995565b61086e565b005b60008061019a6105a9565b90506000600154116101e1576040517f08c379a00000000000000000000000000000000000000000000000000000000081526004016101d890610e5d565b60405180910390fd5b60006001546305f5e100856101f69190610eac565b6102009190610f1d565b9050600082670de0b6b3a7640000836102199190610eac565b6102239190610f1d565b9050809350505050919050565b600360009054906101000a900473ffffffffffffffffffffffffffffffffffffffff1673ffffffffffffffffffffffffffffffffffffffff163373ffffffffffffffffffffffffffffffffffffffff16146102c0576040517f08c379a00000000000000000000000000000000000000000000000000000000081526004016102b790610fc0565b60405180910390fd5b60004711610303576040517f08c379a00000000000000000000000000000000000000000000000000000000081526004016102fa9061102c565b60405180910390fd5b6000600360009054906101000a900473ffffffffffffffffffffffffffffffffffffffff1673ffffffffffffffffffffffffffffffffffffffff164760405161034b9061107d565b60006040518083038185875af1925050503d8060008114610388576040519150601f19603f3d011682016040523d82523d6000602084013e61038d565b606091505b50509050806103d1576040517f08c379a00000000000000000000000000000000000000000000000000000000081526004016103c8906110de565b60405180910390fd5b50565b60006103df8261018f565b905080341015610424576040517f08c379a000000000000000000000000000000000000000000000000000000000815260040161041b90611170565b60405180910390fd5b8034111561047f573373ffffffffffffffffffffffffffffffffffffffff166108fc82346104529190611190565b9081150290604051600060405180830381858888f1935050505015801561047d573d6000803e3d6000fd5b505b600260405180608001604052803373ffffffffffffffffffffffffffffffffffffffff16815260200142815260200186815260200185815250908060018154018082558091505060019003906000526020600020906004020160009091909190915060008201518160000160006101000a81548173ffffffffffffffffffffffffffffffffffffffff021916908373ffffffffffffffffffffffffffffffffffffffff16021790555060208201518160010155604082015181600201908161054791906113d0565b50606082015181600301908161055d91906113d0565b5050507fc56140e05f516509ae28110e0f72e17558a7561630dad2647c3ae87d986e365c3342868660405161059594939291906114ea565b60405180910390a150505050565b60015481565b60008060008054906101000a900473ffffffffffffffffffffffffffffffffffffffff1673ffffffffffffffffffffffffffffffffffffffff1663feaf968c6040518163ffffffff1660e01b815260040160a060405180830381865afa158015610617573d6000803e3d6000fd5b505050506040513d601f19601f8201168201806040525081019061063b91906115ca565b50505091505060008113610684576040517f08c379a000000000000000000000000000000000000000000000000000000000815260040161067b906116b7565b60405180910390fd5b8091505090565b60606002805480602002602001604051908101604052809291908181526020016000905b8282101561086557838290600052602060002090600402016040518060800160405290816000820160009054906101000a900473ffffffffffffffffffffffffffffffffffffffff1673ffffffffffffffffffffffffffffffffffffffff1673ffffffffffffffffffffffffffffffffffffffff16815260200160018201548152602001600282018054610742906111f3565b80601f016020809104026020016040519081016040528092919081815260200182805461076e906111f3565b80156107bb5780601f10610790576101008083540402835291602001916107bb565b820191906000526020600020905b81548152906001019060200180831161079e57829003601f168201915b505050505081526020016003820180546107d4906111f3565b80601f0160208091040260200160405190810160405280929190818152602001828054610800906111f3565b801561084d5780601f106108225761010080835404028352916020019161084d565b820191906000526020600020905b81548152906001019060200180831161083057829003601f168201915b505050505081525050815260200190600101906106af565b50505050905090565b600360009054906101000a900473ffffffffffffffffffffffffffffffffffffffff1673ffffffffffffffffffffffffffffffffffffffff163373ffffffffffffffffffffffffffffffffffffffff16146108fe576040517f08c379a00000000000000000000000000000000000000000000000000000000081526004016108f590610fc0565b60405180910390fd5b60008111610941576040517f08c379a000000000000000000000000000000000000000000000000000000000815260040161093890611749565b60405180910390fd5b8060018190555050565b6000604051905090565b600080fd5b600080fd5b6000819050919050565b6109728161095f565b811461097d57600080fd5b50565b60008135905061098f81610969565b92915050565b6000602082840312156109ab576109aa610955565b5b60006109b984828501610980565b91505092915050565b6109cb8161095f565b82525050565b60006020820190506109e660008301846109c2565b92915050565b600080fd5b600080fd5b6000601f19601f8301169050919050565b7f4e487b7100000000000000000000000000000000000000000000000000000000600052604160045260246000fd5b610a3f826109f6565b810181811067ffffffffffffffff82111715610a5e57610a5d610a07565b5b80604052505050565b6000610a7161094b565b9050610a7d8282610a36565b919050565b600067ffffffffffffffff821115610a9d57610a9c610a07565b5b610aa6826109f6565b9050602081019050919050565b82818337600083830152505050565b6000610ad5610ad084610a82565b610a67565b905082815260208101848484011115610af157610af06109f1565b5b610afc848285610ab3565b509392505050565b600082601f830112610b1957610b186109ec565b5b8135610b29848260208601610ac2565b91505092915050565b600080600060608486031215610b4b57610b4a610955565b5b600084013567ffffffffffffffff811115610b6957610b6861095a565b5b610b7586828701610b04565b935050602084013567ffffffffffffffff811115610b9657610b9561095a565b5b610ba286828701610b04565b9250506040610bb386828701610980565b9150509250925092565b600081519050919050565b600082825260208201905092915050565b6000819050602082019050919050565b600073ffffffffffffffffffffffffffffffffffffffff82169050919050565b6000610c1482610be9565b9050919050565b610c2481610c09565b82525050565b610c338161095f565b82525050565b600081519050919050565b600082825260208201905092915050565b60005b83811015610c73578082015181840152602081019050610c58565b60008484015250505050565b6000610c8a82610c39565b610c948185610c44565b9350610ca4818560208601610c55565b610cad816109f6565b840191505092915050565b6000608083016000830151610cd06000860182610c1b565b506020830151610ce36020860182610c2a565b5060408301518482036040860152610cfb8282610c7f565b91505060608301518482036060860152610d158282610c7f565b9150508091505092915050565b6000610d2e8383610cb8565b905092915050565b6000602082019050919050565b6000610d4e82610bbd565b610d588185610bc8565b935083602082028501610d6a85610bd9565b8060005b85811015610da65784840389528151610d878582610d22565b9450610d9283610d36565b925060208a01995050600181019050610d6e565b50829750879550505050505092915050565b60006020820190508181036000830152610dd28184610d43565b905092915050565b600082825260208201905092915050565b7f55534420746f20494452207072696365206e6f7420736574206f72206973207a60008201527f65726f202863616c6c20757064617465757364746f6964727072696365290000602082015250565b6000610e47603e83610dda565b9150610e5282610deb565b604082019050919050565b60006020820190508181036000830152610e7681610e3a565b9050919050565b7f4e487b7100000000000000000000000000000000000000000000000000000000600052601160045260246000fd5b6000610eb78261095f565b9150610ec28361095f565b9250828202610ed08161095f565b91508282048414831517610ee757610ee6610e7d565b5b5092915050565b7f4e487b7100000000000000000000000000000000000000000000000000000000600052601260045260246000fd5b6000610f288261095f565b9150610f338361095f565b925082610f4357610f42610eee565b5b828204905092915050565b7f4f6e6c79206f776e65722063616e2063616c6c20746869732066756e6374696f60008201527f6e00000000000000000000000000000000000000000000000000000000000000602082015250565b6000610faa602183610dda565b9150610fb582610f4e565b604082019050919050565b60006020820190508181036000830152610fd981610f9d565b9050919050565b7f4e6f2066756e647320746f207769746864726177000000000000000000000000600082015250565b6000611016601483610dda565b915061102182610fe0565b602082019050919050565b6000602082019050818103600083015261104581611009565b9050919050565b600081905092915050565b50565b600061106760008361104c565b915061107282611057565b600082019050919050565b60006110888261105a565b9150819050919050565b7f4661696c656420746f2077697468647261772045746865720000000000000000600082015250565b60006110c8601883610dda565b91506110d382611092565b602082019050919050565b600060208201905081810360008301526110f7816110bb565b9050919050565b7f496e73756666696369656e742066756e64732073656e742e20436865636b204960008201527f445220616d6f756e74206f722065786368616e676520726174652e0000000000602082015250565b600061115a603b83610dda565b9150611165826110fe565b604082019050919050565b600060208201905081810360008301526111898161114d565b9050919050565b600061119b8261095f565b91506111a68361095f565b92508282039050818111156111be576111bd610e7d565b5b92915050565b7f4e487b7100000000000000000000000000000000000000000000000000000000600052602260045260246000fd5b6000600282049050600182168061120b57607f821691505b60208210810361121e5761121d6111c4565b5b50919050565b60008190508160005260206000209050919050565b60006020601f8301049050919050565b600082821b905092915050565b6000600883026112867fffffffffffffffffffffffffffffffffffffffffffffffffffffffffffffffff82611249565b6112908683611249565b95508019841693508086168417925050509392505050565b6000819050919050565b60006112cd6112c86112c38461095f565b6112a8565b61095f565b9050919050565b6000819050919050565b6112e7836112b2565b6112fb6112f3826112d4565b848454611256565b825550505050565b600090565b611310611303565b61131b8184846112de565b505050565b5b8181101561133f57611334600082611308565b600181019050611321565b5050565b601f8211156113845761135581611224565b61135e84611239565b8101602085101561136d578190505b61138161137985611239565b830182611320565b50505b505050565b600082821c905092915050565b60006113a760001984600802611389565b1980831691505092915050565b60006113c08383611396565b9150826002028217905092915050565b6113d982610c39565b67ffffffffffffffff8111156113f2576113f1610a07565b5b6113fc82546111f3565b611407828285611343565b600060209050601f83116001811461143a5760008415611428578287015190505b61143285826113b4565b86555061149a565b601f19841661144886611224565b60005b828110156114705784890151825560018201915060208501945060208101905061144b565b8683101561148d5784890151611489601f891682611396565b8355505b6001600288020188555050505b505050505050565b6114ab81610c09565b82525050565b60006114bc82610c39565b6114c68185610dda565b93506114d6818560208601610c55565b6114df816109f6565b840191505092915050565b60006080820190506114ff60008301876114a2565b61150c60208301866109c2565b818103604083015261151e81856114b1565b9050818103606083015261153281846114b1565b905095945050505050565b600069ffffffffffffffffffff82169050919050565b61155c8161153d565b811461156757600080fd5b50565b60008151905061157981611553565b92915050565b6000819050919050565b6115928161157f565b811461159d57600080fd5b50565b6000815190506115af81611589565b92915050565b6000815190506115c481610969565b92915050565b600080600080600060a086880312156115e6576115e5610955565b5b60006115f48882890161156a565b9550506020611605888289016115a0565b9450506040611616888289016115b5565b9350506060611627888289016115b5565b92505060806116388882890161156a565b9150509295509295909350565b7f45544820746f205553442070726963652066726f6d206f7261636c652069732060008201527f7a65726f206f7220696e76616c69640000000000000000000000000000000000602082015250565b60006116a1602f83610dda565b91506116ac82611645565b604082019050919050565b600060208201905081810360008301526116d081611694565b9050919050565b7f55534420746f204944522072617465206d75737420626520677265617465722060008201527f7468616e207a65726f0000000000000000000000000000000000000000000000602082015250565b6000611733602983610dda565b915061173e826116d7565b604082019050919050565b6000602082019050818103600083015261176281611726565b905091905056fea2646970667358221220b14e6a446462d91e960031395a7558317f8183be45d54df9e7ebd01a68b15c6764736f6c634300081c0033",
  "linkReferences": {},
  "deployedLinkReferences": {}
}